{
  "_format": "hh-sol-artifact-1",
  "contractName": "Certificate",
  "sourceName": "contracts/Certificate.sol",
  "abi": [
    {
      "anonymous": false,
      "inputs": [
        {
          "indexed": false,
          "internalType": "string",
          "name": "credentialId",
          "type": "string"
        },
        {
          "indexed": false,
          "internalType": "address",
          "name": "owner",
          "type": "address"
        }
      ],
      "name": "CertificateIssued",
      "type": "event"
    },
    {
      "inputs": [
        {
          "internalType": "string",
          "name": "credentialId",
          "type": "string"
        }
      ],
      "name": "getCertificate",
      "outputs": [
        {
          "components": [
            {
              "internalType": "string",
              "name": "credentialId",
              "type": "string"
            },
            {
              "internalType": "string",
              "name": "title",
              "type": "string"
            },
            {
              "internalType": "string",
              "name": "trackId",
              "type": "string"
            },
            {
              "internalType": "address",
              "name": "owner",
              "type": "address"
            },
            {
              "internalType": "uint256",
              "name": "issuedAt",
              "type": "uint256"
            }
          ],
          "internalType": "struct Certificate.Cert",
          "name": "",
          "type": "tuple"
        }
      ],
      "stateMutability": "view",
      "type": "function"
    },
    {
      "inputs": [
        {
          "internalType": "string",
          "name": "credentialId",
          "type": "string"
        },
        {
          "internalType": "string",
          "name": "title",
          "type": "string"
        },
        {
          "internalType": "string",
          "name": "trackId",
          "type": "string"
        },
        {
          "internalType": "address",
          "name": "owner",
          "type": "address"
        }
      ],
      "name": "issueCertificate",
      "outputs": [],
      "stateMutability": "nonpayable",
      "type": "function"
    },
    {
      "inputs": [
        {
          "internalType": "string",
          "name": "credentialId",
          "type": "string"
        }
      ],
      "name": "verifyCertificate",
      "outputs": [
        {
          "internalType": "bool",
          "name": "",
          "type": "bool"
        }
      ],
      "stateMutability": "view",
      "type": "function"
    }
  ],
  "bytecode": "0x6080604052348015600f57600080fd5b50610ea38061001f6000396000f3fe608060405234801561001057600080fd5b50600436106100415760003560e01c80638b23d87514610046578063b898c86f14610076578063ed0f2e7514610092575b600080fd5b610060600480360381019061005b91906106f6565b6100c2565b60405161006d919061075a565b60405180910390f35b610090600480360381019061008b91906107d3565b6100fb565b005b6100ac60048036038101906100a791906106f6565b61029a565b6040516100b991906109b9565b60405180910390f35b6000806000836040516100d59190610a17565b908152602001604051809103902060000180546100f190610a5d565b9050119050919050565b6000808560405161010c9190610a17565b9081526020016040518091039020600001805461012890610a5d565b90501461016a576040517f08c379a000000000000000000000000000000000000000000000000000000000815260040161016190610aeb565b60405180910390fd5b6040518060a001604052808581526020018481526020018381526020018273ffffffffffffffffffffffffffffffffffffffff168152602001428152506000856040516101b79190610a17565b908152602001604051809103902060008201518160000190816101da9190610cb7565b5060208201518160010190816101f09190610cb7565b5060408201518160020190816102069190610cb7565b5060608201518160030160006101000a81548173ffffffffffffffffffffffffffffffffffffffff021916908373ffffffffffffffffffffffffffffffffffffffff160217905550608082015181600401559050507fada8a8d27187fe2bc19217fb8e0301fa8380a4d850748240b8d735f2a8fc0621848260405161028c929190610dd1565b60405180910390a150505050565b6102a2610557565b600080836040516102b39190610a17565b908152602001604051809103902060000180546102cf90610a5d565b905011610311576040517f08c379a000000000000000000000000000000000000000000000000000000000815260040161030890610e4d565b60405180910390fd5b6000826040516103219190610a17565b90815260200160405180910390206040518060a001604052908160008201805461034a90610a5d565b80601f016020809104026020016040519081016040528092919081815260200182805461037690610a5d565b80156103c35780601f10610398576101008083540402835291602001916103c3565b820191906000526020600020905b8154815290600101906020018083116103a657829003601f168201915b505050505081526020016001820180546103dc90610a5d565b80601f016020809104026020016040519081016040528092919081815260200182805461040890610a5d565b80156104555780601f1061042a57610100808354040283529160200191610455565b820191906000526020600020905b81548152906001019060200180831161043857829003601f168201915b5050505050815260200160028201805461046e90610a5d565b80601f016020809104026020016040519081016040528092919081815260200182805461049a90610a5d565b80156104e75780601f106104bc576101008083540402835291602001916104e7565b820191906000526020600020905b8154815290600101906020018083116104ca57829003601f168201915b505050505081526020016003820160009054906101000a900473ffffffffffffffffffffffffffffffffffffffff1673ffffffffffffffffffffffffffffffffffffffff1673ffffffffffffffffffffffffffffffffffffffff1681526020016004820154815250509050919050565b6040518060a00160405280606081526020016060815260200160608152602001600073ffffffffffffffffffffffffffffffffffffffff168152602001600081525090565b6000604051905090565b600080fd5b600080fd5b600080fd5b600080fd5b6000601f19601f8301169050919050565b7f4e487b7100000000000000000000000000000000000000000000000000000000600052604160045260246000fd5b610603826105ba565b810181811067ffffffffffffffff82111715610622576106216105cb565b5b80604052505050565b600061063561059c565b905061064182826105fa565b919050565b600067ffffffffffffffff821115610661576106606105cb565b5b61066a826105ba565b9050602081019050919050565b82818337600083830152505050565b600061069961069484610646565b61062b565b9050828152602081018484840111156106b5576106b46105b5565b5b6106c0848285610677565b509392505050565b600082601f8301126106dd576106dc6105b0565b5b81356106ed848260208601610686565b91505092915050565b60006020828403121561070c5761070b6105a6565b5b600082013567ffffffffffffffff81111561072a576107296105ab565b5b610736848285016106c8565b91505092915050565b60008115159050919050565b6107548161073f565b82525050565b600060208201905061076f600083018461074b565b92915050565b600073ffffffffffffffffffffffffffffffffffffffff82169050919050565b60006107a082610775565b9050919050565b6107b081610795565b81146107bb57600080fd5b50565b6000813590506107cd816107a7565b92915050565b600080600080608085870312156107ed576107ec6105a6565b5b600085013567ffffffffffffffff81111561080b5761080a6105ab565b5b610817878288016106c8565b945050602085013567ffffffffffffffff811115610838576108376105ab565b5b610844878288016106c8565b935050604085013567ffffffffffffffff811115610865576108646105ab565b5b610871878288016106c8565b9250506060610882878288016107be565b91505092959194509250565b600081519050919050565b600082825260208201905092915050565b60005b838110156108c85780820151818401526020810190506108ad565b60008484015250505050565b60006108df8261088e565b6108e98185610899565b93506108f98185602086016108aa565b610902816105ba565b840191505092915050565b61091681610795565b82525050565b6000819050919050565b61092f8161091c565b82525050565b600060a083016000830151848203600086015261095282826108d4565b9150506020830151848203602086015261096c82826108d4565b9150506040830151848203604086015261098682826108d4565b915050606083015161099b606086018261090d565b5060808301516109ae6080860182610926565b508091505092915050565b600060208201905081810360008301526109d38184610935565b905092915050565b600081905092915050565b60006109f18261088e565b6109fb81856109db565b9350610a0b8185602086016108aa565b80840191505092915050565b6000610a2382846109e6565b915081905092915050565b7f4e487b7100000000000000000000000000000000000000000000000000000000600052602260045260246000fd5b60006002820490506001821680610a7557607f821691505b602082108103610a8857610a87610a2e565b5b50919050565b600082825260208201905092915050565b7f436572746966696361746520616c726561647920657869737473000000000000600082015250565b6000610ad5601a83610a8e565b9150610ae082610a9f565b602082019050919050565b60006020820190508181036000830152610b0481610ac8565b9050919050565b60008190508160005260206000209050919050565b60006020601f8301049050919050565b600082821b905092915050565b600060088302610b6d7fffffffffffffffffffffffffffffffffffffffffffffffffffffffffffffffff82610b30565b610b778683610b30565b95508019841693508086168417925050509392505050565b6000819050919050565b6000610bb4610baf610baa8461091c565b610b8f565b61091c565b9050919050565b6000819050919050565b610bce83610b99565b610be2610bda82610bbb565b848454610b3d565b825550505050565b600090565b610bf7610bea565b610c02818484610bc5565b505050565b5b81811015610c2657610c1b600082610bef565b600181019050610c08565b5050565b601f821115610c6b57610c3c81610b0b565b610c4584610b20565b81016020851015610c54578190505b610c68610c6085610b20565b830182610c07565b50505b505050565b600082821c905092915050565b6000610c8e60001984600802610c70565b1980831691505092915050565b6000610ca78383610c7d565b9150826002028217905092915050565b610cc08261088e565b67ffffffffffffffff811115610cd957610cd86105cb565b5b610ce38254610a5d565b610cee828285610c2a565b600060209050601f831160018114610d215760008415610d0f578287015190505b610d198582610c9b565b865550610d81565b601f198416610d2f86610b0b565b60005b82811015610d5757848901518255600182019150602085019450602081019050610d32565b86831015610d745784890151610d70601f891682610c7d565b8355505b6001600288020188555050505b505050505050565b6000610d948261088e565b610d9e8185610a8e565b9350610dae8185602086016108aa565b610db7816105ba565b840191505092915050565b610dcb81610795565b82525050565b60006040820190508181036000830152610deb8185610d89565b9050610dfa6020830184610dc2565b9392505050565b7f4365727469666963617465206e6f7420666f756e640000000000000000000000600082015250565b6000610e37601583610a8e565b9150610e4282610e01565b602082019050919050565b60006020820190508181036000830152610e6681610e2a565b905091905056fea2646970667358221220892f174901ad4b66b533b01b2263edcf03193fc96f8b4640c7660007a81c29aa64736f6c634300081c0033",
  "linkReferences": {},
  "deployedLinkReferences": {}
}