{"contracts/Certificate.sol":{"Certificate":{"abi":[{"anonymous":false,"inputs":[{"indexed":false,"internalType":"string","name":"credentialId","type":"string"},{"indexed":false,"internalType":"address","name":"owner","type":"address"}],"name":"CertificateIssued","type":"event"},{"inputs":[{"internalType":"string","name":"credentialId","type":"string"}],"name":"getCertificate","outputs":[{"components":[{"internalType":"string","name":"credentialId","type":"string"},{"internalType":"string","name":"title","type":"string"},{"internalType":"string","name":"trackId","type":"string"},{"internalType":"address","name":"owner","type":"address"},{"internalType":"uint256","name":"issuedAt","type":"uint256"}],"internalType":"struct Certificate.Cert","name":"","type":"tuple"}],"stateMutability":"view","type":"function"},{"inputs":[{"internalType":"string","name":"credentialId","type":"string"},{"internalType":"string","name":"title","type":"string"},{"internalType":"string","name":"trackId","type":"string"},{"internalType":"address","name":"owner","type":"address"}],"name":"issueCertificate","outputs":[],"stateMutability":"nonpayable","type":"function"},{"inputs":[{"internalType":"string","name":"credentialId","type":"string"}],"name":"verifyCertificate","outputs":[{"internalType":"bool","name":"","type":"bool"}],"stateMutability":"view","type":"function"}],"evm":{"bytecode":{"linkReferences":{},"object":"6080604052348015600f57600080fd5b50610ea38061001f6000396000f3fe608060405234801561001057600080fd5b50600436106100415760003560e01c80638b23d87514610046578063b898c86f14610076578063ed0f2e7514610092575b600080fd5b610060600480360381019061005b91906106f6565b6100c2565b60405161006d919061075a565b60405180910390f35b610090600480360381019061008b91906107d3565b6100fb565b005b6100ac60048036038101906100a791906106f6565b61029a565b6040516100b991906109b9565b60405180910390f35b6000806000836040516100d59190610a17565b908152602001604051809103902060000180546100f190610a5d565b9050119050919050565b6000808560405161010c9190610a17565b9081526020016040518091039020600001805461012890610a5d565b90501461016a576040517f08c379a000000000000000000000000000000000000000000000000000000000815260040161016190610aeb565b60405180910390fd5b6040518060a001604052808581526020018481526020018381526020018273ffffffffffffffffffffffffffffffffffffffff168152602001428152506000856040516101b79190610a17565b908152602001604051809103902060008201518160000190816101da9190610cb7565b5060208201518160010190816101f09190610cb7565b5060408201518160020190816102069190610cb7565b5060608201518160030160006101000a81548173ffffffffffffffffffffffffffffffffffffffff021916908373ffffffffffffffffffffffffffffffffffffffff160217905550608082015181600401559050507fada8a8d27187fe2bc19217fb8e0301fa8380a4d850748240b8d735f2a8fc0621848260405161028c929190610dd1565b60405180910390a150505050565b6102a2610557565b600080836040516102b39190610a17565b908152602001604051809103902060000180546102cf90610a5d565b905011610311576040517f08c379a000000000000000000000000000000000000000000000000000000000815260040161030890610e4d565b60405180910390fd5b6000826040516103219190610a17565b90815260200160405180910390206040518060a001604052908160008201805461034a90610a5d565b80601f016020809104026020016040519081016040528092919081815260200182805461037690610a5d565b80156103c35780601f10610398576101008083540402835291602001916103c3565b820191906000526020600020905b8154815290600101906020018083116103a657829003601f168201915b505050505081526020016001820180546103dc90610a5d565b80601f016020809104026020016040519081016040528092919081815260200182805461040890610a5d565b80156104555780601f1061042a57610100808354040283529160200191610455565b820191906000526020600020905b81548152906001019060200180831161043857829003601f168201915b5050505050815260200160028201805461046e90610a5d565b80601f016020809104026020016040519081016040528092919081815260200182805461049a90610a5d565b80156104e75780601f106104bc576101008083540402835291602001916104e7565b820191906000526020600020905b8154815290600101906020018083116104ca57829003601f168201915b505050505081526020016003820160009054906101000a900473ffffffffffffffffffffffffffffffffffffffff1673ffffffffffffffffffffffffffffffffffffffff1673ffffffffffffffffffffffffffffffffffffffff1681526020016004820154815250509050919050565b6040518060a00160405280606081526020016060815260200160608152602001600073ffffffffffffffffffffffffffffffffffffffff168152602001600081525090565b6000604051905090565b600080fd5b600080fd5b600080fd5b600080fd5b6000601f19601f8301169050919050565b7f4e487b7100000000000000000000000000000000000000000000000000000000600052604160045260246000fd5b610603826105ba565b810181811067ffffffffffffffff82111715610622576106216105cb565b5b80604052505050565b600061063561059c565b905061064182826105fa565b919050565b600067ffffffffffffffff821115610661576106606105cb565b5b61066a826105ba565b9050602081019050919050565b82818337600083830152505050565b600061069961069484610646565b61062b565b9050828152602081018484840111156106b5576106b46105b5565b5b6106c0848285610677565b509392505050565b600082601f8301126106dd576106dc6105b0565b5b81356106ed848260208601610686565b91505092915050565b60006020828403121561070c5761070b6105a6565b5b600082013567ffffffffffffffff81111561072a576107296105ab565b5b610736848285016106c8565b91505092915050565b60008115159050919050565b6107548161073f565b82525050565b600060208201905061076f600083018461074b565b92915050565b600073ffffffffffffffffffffffffffffffffffffffff82169050919050565b60006107a082610775565b9050919050565b6107b081610795565b81146107bb57600080fd5b50565b6000813590506107cd816107a7565b92915050565b600080600080608085870312156107ed576107ec6105a6565b5b600085013567ffffffffffffffff81111561080b5761080a6105ab565b5b610817878288016106c8565b945050602085013567ffffffffffffffff811115610838576108376105ab565b5b610844878288016106c8565b935050604085013567ffffffffffffffff811115610865576108646105ab565b5b610871878288016106c8565b9250506060610882878288016107be565b91505092959194509250565b600081519050919050565b600082825260208201905092915050565b60005b838110156108c85780820151818401526020810190506108ad565b60008484015250505050565b60006108df8261088e565b6108e98185610899565b93506108f98185602086016108aa565b610902816105ba565b840191505092915050565b61091681610795565b82525050565b6000819050919050565b61092f8161091c565b82525050565b600060a083016000830151848203600086015261095282826108d4565b9150506020830151848203602086015261096c82826108d4565b9150506040830151848203604086015261098682826108d4565b915050606083015161099b606086018261090d565b5060808301516109ae6080860182610926565b508091505092915050565b600060208201905081810360008301526109d38184610935565b905092915050565b600081905092915050565b60006109f18261088e565b6109fb81856109db565b9350610a0b8185602086016108aa565b80840191505092915050565b6000610a2382846109e6565b915081905092915050565b7f4e487b7100000000000000000000000000000000000000000000000000000000600052602260045260246000fd5b60006002820490506001821680610a7557607f821691505b602082108103610a8857610a87610a2e565b5b50919050565b600082825260208201905092915050565b7f436572746966696361746520616c726561647920657869737473000000000000600082015250565b6000610ad5601a83610a8e565b9150610ae082610a9f565b602082019050919050565b60006020820190508181036000830152610b0481610ac8565b9050919050565b60008190508160005260206000209050919050565b60006020601f8301049050919050565b600082821b905092915050565b600060088302610b6d7fffffffffffffffffffffffffffffffffffffffffffffffffffffffffffffffff82610b30565b610b778683610b30565b95508019841693508086168417925050509392505050565b6000819050919050565b6000610bb4610baf610baa8461091c565b610b8f565b61091c565b9050919050565b6000819050919050565b610bce83610b99565b610be2610bda82610bbb565b848454610b3d565b825550505050565b600090565b610bf7610bea565b610c02818484610bc5565b505050565b5b81811015610c2657610c1b600082610bef565b600181019050610c08565b5050565b601f821115610c6b57610c3c81610b0b565b610c4584610b20565b81016020851015610c54578190505b610c68610c6085610b20565b830182610c07565b50505b505050565b600082821c905092915050565b6000610c8e60001984600802610c70565b1980831691505092915050565b6000610ca78383610c7d565b9150826002028217905092915050565b610cc08261088e565b67ffffffffffffffff811115610cd957610cd86105cb565b5b610ce38254610a5d565b610cee828285610c2a565b600060209050601f831160018114610d215760008415610d0f578287015190505b610d198582610c9b565b865550610d81565b601f198416610d2f86610b0b565b60005b82811015610d5757848901518255600182019150602085019450602081019050610d32565b86831015610d745784890151610d70601f891682610c7d565b8355505b6001600288020188555050505b505050505050565b6000610d948261088e565b610d9e8185610a8e565b9350610dae8185602086016108aa565b610db7816105ba565b840191505092915050565b610dcb81610795565b82525050565b60006040820190508181036000830152610deb8185610d89565b9050610dfa6020830184610dc2565b9392505050565b7f4365727469666963617465206e6f7420666f756e640000000000000000000000600082015250565b6000610e37601583610a8e565b9150610e4282610e01565b602082019050919050565b60006020820190508181036000830152610e6681610e2a565b905091905056fea2646970667358221220892f174901ad4b66b533b01b2263edcf03193fc96f8b4640c7660007a81c29aa64736f6c634300081c0033","opcodes":"PUSH1 0x80 PUSH1 0x40 MSTORE CALLVALUE DUP1 ISZERO PUSH1 0xF JUMPI PUSH1 0x0 DUP1 REVERT JUMPDEST POP PUSH2 0xEA3 DUP1 PUSH2 0x1F PUSH1 0x0 CODECOPY PUSH1 0x0 RETURN INVALID PUSH1 0x80 PUSH1 0x40 MSTORE CALLVALUE DUP1 ISZERO PUSH2 0x10 JUMPI PUSH1 0x0 DUP1 REVERT JUMPDEST POP PUSH1 0x4 CALLDATASIZE LT PUSH2 0x41 JUMPI PUSH1 0x0 CALLDATALOAD PUSH1 0xE0 SHR DUP1 PUSH4 0x8B23D875 EQ PUSH2 0x46 JUMPI DUP1 PUSH4 0xB898C86F EQ PUSH2 0x76 JUMPI DUP1 PUSH4 0xED0F2E75 EQ PUSH2 0x92 JUMPI JUMPDEST PUSH1 0x0 DUP1 REVERT JUMPDEST PUSH2 0x60 PUSH1 0x4 DUP1 CALLDATASIZE SUB DUP2 ADD SWAP1 PUSH2 0x5B SWAP2 SWAP1 PUSH2 0x6F6 JUMP JUMPDEST PUSH2 0xC2 JUMP JUMPDEST PUSH1 0x40 MLOAD PUSH2 0x6D SWAP2 SWAP1 PUSH2 0x75A JUMP JUMPDEST PUSH1 0x40 MLOAD DUP1 SWAP2 SUB SWAP1 RETURN JUMPDEST PUSH2 0x90 PUSH1 0x4 DUP1 CALLDATASIZE SUB DUP2 ADD SWAP1 PUSH2 0x8B SWAP2 SWAP1 PUSH2 0x7D3 JUMP JUMPDEST PUSH2 0xFB JUMP JUMPDEST STOP JUMPDEST PUSH2 0xAC PUSH1 0x4 DUP1 CALLDATASIZE SUB DUP2 ADD SWAP1 PUSH2 0xA7 SWAP2 SWAP1 PUSH2 0x6F6 JUMP JUMPDEST PUSH2 0x29A JUMP JUMPDEST PUSH1 0x40 MLOAD PUSH2 0xB9 SWAP2 SWAP1 PUSH2 0x9B9 JUMP JUMPDEST PUSH1 0x40 MLOAD DUP1 SWAP2 SUB SWAP1 RETURN JUMPDEST PUSH1 0x0 DUP1 PUSH1 0x0 DUP4 PUSH1 0x40 MLOAD PUSH2 0xD5 SWAP2 SWAP1 PUSH2 0xA17 JUMP JUMPDEST SWAP1 DUP2 MSTORE PUSH1 0x20 ADD PUSH1 0x40 MLOAD DUP1 SWAP2 SUB SWAP1 KECCAK256 PUSH1 0x0 ADD DUP1 SLOAD PUSH2 0xF1 SWAP1 PUSH2 0xA5D JUMP JUMPDEST SWAP1 POP GT SWAP1 POP SWAP2 SWAP1 POP JUMP JUMPDEST PUSH1 0x0 DUP1 DUP6 PUSH1 0x40 MLOAD PUSH2 0x10C SWAP2 SWAP1 PUSH2 0xA17 JUMP JUMPDEST SWAP1 DUP2 MSTORE PUSH1 0x20 ADD PUSH1 0x40 MLOAD DUP1 SWAP2 SUB SWAP1 KECCAK256 PUSH1 0x0 ADD DUP1 SLOAD PUSH2 0x128 SWAP1 PUSH2 0xA5D JUMP JUMPDEST SWAP1 POP EQ PUSH2 0x16A JUMPI PUSH1 0x40 MLOAD PUSH32 0x8C379A000000000000000000000000000000000000000000000000000000000 DUP2 MSTORE PUSH1 0x4 ADD PUSH2 0x161 SWAP1 PUSH2 0xAEB JUMP JUMPDEST PUSH1 0x40 MLOAD DUP1 SWAP2 SUB SWAP1 REVERT JUMPDEST PUSH1 0x40 MLOAD DUP1 PUSH1 0xA0 ADD PUSH1 0x40 MSTORE DUP1 DUP6 DUP2 MSTORE PUSH1 0x20 ADD DUP5 DUP2 MSTORE PUSH1 0x20 ADD DUP4 DUP2 MSTORE PUSH1 0x20 ADD DUP3 PUSH20 0xFFFFFFFFFFFFFFFFFFFFFFFFFFFFFFFFFFFFFFFF AND DUP2 MSTORE PUSH1 0x20 ADD TIMESTAMP DUP2 MSTORE POP PUSH1 0x0 DUP6 PUSH1 0x40 MLOAD PUSH2 0x1B7 SWAP2 SWAP1 PUSH2 0xA17 JUMP JUMPDEST SWAP1 DUP2 MSTORE PUSH1 0x20 ADD PUSH1 0x40 MLOAD DUP1 SWAP2 SUB SWAP1 KECCAK256 PUSH1 0x0 DUP3 ADD MLOAD DUP2 PUSH1 0x0 ADD SWAP1 DUP2 PUSH2 0x1DA SWAP2 SWAP1 PUSH2 0xCB7 JUMP JUMPDEST POP PUSH1 0x20 DUP3 ADD MLOAD DUP2 PUSH1 0x1 ADD SWAP1 DUP2 PUSH2 0x1F0 SWAP2 SWAP1 PUSH2 0xCB7 JUMP JUMPDEST POP PUSH1 0x40 DUP3 ADD MLOAD DUP2 PUSH1 0x2 ADD SWAP1 DUP2 PUSH2 0x206 SWAP2 SWAP1 PUSH2 0xCB7 JUMP JUMPDEST POP PUSH1 0x60 DUP3 ADD MLOAD DUP2 PUSH1 0x3 ADD PUSH1 0x0 PUSH2 0x100 EXP DUP2 SLOAD DUP2 PUSH20 0xFFFFFFFFFFFFFFFFFFFFFFFFFFFFFFFFFFFFFFFF MUL NOT AND SWAP1 DUP4 PUSH20 0xFFFFFFFFFFFFFFFFFFFFFFFFFFFFFFFFFFFFFFFF AND MUL OR SWAP1 SSTORE POP PUSH1 0x80 DUP3 ADD MLOAD DUP2 PUSH1 0x4 ADD SSTORE SWAP1 POP POP PUSH32 0xADA8A8D27187FE2BC19217FB8E0301FA8380A4D850748240B8D735F2A8FC0621 DUP5 DUP3 PUSH1 0x40 MLOAD PUSH2 0x28C SWAP3 SWAP2 SWAP1 PUSH2 0xDD1 JUMP JUMPDEST PUSH1 0x40 MLOAD DUP1 SWAP2 SUB SWAP1 LOG1 POP POP POP POP JUMP JUMPDEST PUSH2 0x2A2 PUSH2 0x557 JUMP JUMPDEST PUSH1 0x0 DUP1 DUP4 PUSH1 0x40 MLOAD PUSH2 0x2B3 SWAP2 SWAP1 PUSH2 0xA17 JUMP JUMPDEST SWAP1 DUP2 MSTORE PUSH1 0x20 ADD PUSH1 0x40 MLOAD DUP1 SWAP2 SUB SWAP1 KECCAK256 PUSH1 0x0 ADD DUP1 SLOAD PUSH2 0x2CF SWAP1 PUSH2 0xA5D JUMP JUMPDEST SWAP1 POP GT PUSH2 0x311 JUMPI PUSH1 0x40 MLOAD PUSH32 0x8C379A000000000000000000000000000000000000000000000000000000000 DUP2 MSTORE PUSH1 0x4 ADD PUSH2 0x308 SWAP1 PUSH2 0xE4D JUMP JUMPDEST PUSH1 0x40 MLOAD DUP1 SWAP2 SUB SWAP1 REVERT JUMPDEST PUSH1 0x0 DUP3 PUSH1 0x40 MLOAD PUSH2 0x321 SWAP2 SWAP1 PUSH2 0xA17 JUMP JUMPDEST SWAP1 DUP2 MSTORE PUSH1 0x20 ADD PUSH1 0x40 MLOAD DUP1 SWAP2 SUB SWAP1 KECCAK256 PUSH1 0x40 MLOAD DUP1 PUSH1 0xA0 ADD PUSH1 0x40 MSTORE SWAP1 DUP2 PUSH1 0x0 DUP3 ADD DUP1 SLOAD PUSH2 0x34A SWAP1 PUSH2 0xA5D JUMP JUMPDEST DUP1 PUSH1 0x1F ADD PUSH1 0x20 DUP1 SWAP2 DIV MUL PUSH1 0x20 ADD PUSH1 0x40 MLOAD SWAP1 DUP2 ADD PUSH1 0x40 MSTORE DUP1 SWAP3 SWAP2 SWAP1 DUP2 DUP2 MSTORE PUSH1 0x20 ADD DUP3 DUP1 SLOAD PUSH2 0x376 SWAP1 PUSH2 0xA5D JUMP JUMPDEST DUP1 ISZERO PUSH2 0x3C3 JUMPI DUP1 PUSH1 0x1F LT PUSH2 0x398 JUMPI PUSH2 0x100 DUP1 DUP4 SLOAD DIV MUL DUP4 MSTORE SWAP2 PUSH1 0x20 ADD SWAP2 PUSH2 0x3C3 JUMP JUMPDEST DUP3 ADD SWAP2 SWAP1 PUSH1 0x0 MSTORE PUSH1 0x20 PUSH1 0x0 KECCAK256 SWAP1 JUMPDEST DUP2 SLOAD DUP2 MSTORE SWAP1 PUSH1 0x1 ADD SWAP1 PUSH1 0x20 ADD DUP1 DUP4 GT PUSH2 0x3A6 JUMPI DUP3 SWAP1 SUB PUSH1 0x1F AND DUP3 ADD SWAP2 JUMPDEST POP POP POP POP POP DUP2 MSTORE PUSH1 0x20 ADD PUSH1 0x1 DUP3 ADD DUP1 SLOAD PUSH2 0x3DC SWAP1 PUSH2 0xA5D JUMP JUMPDEST DUP1 PUSH1 0x1F ADD PUSH1 0x20 DUP1 SWAP2 DIV MUL PUSH1 0x20 ADD PUSH1 0x40 MLOAD SWAP1 DUP2 ADD PUSH1 0x40 MSTORE DUP1 SWAP3 SWAP2 SWAP1 DUP2 DUP2 MSTORE PUSH1 0x20 ADD DUP3 DUP1 SLOAD PUSH2 0x408 SWAP1 PUSH2 0xA5D JUMP JUMPDEST DUP1 ISZERO PUSH2 0x455 JUMPI DUP1 PUSH1 0x1F LT PUSH2 0x42A JUMPI PUSH2 0x100 DUP1 DUP4 SLOAD DIV MUL DUP4 MSTORE SWAP2 PUSH1 0x20 ADD SWAP2 PUSH2 0x455 JUMP JUMPDEST DUP3 ADD SWAP2 SWAP1 PUSH1 0x0 MSTORE PUSH1 0x20 PUSH1 0x0 KECCAK256 SWAP1 JUMPDEST DUP2 SLOAD DUP2 MSTORE SWAP1 PUSH1 0x1 ADD SWAP1 PUSH1 0x20 ADD DUP1 DUP4 GT PUSH2 0x438 JUMPI DUP3 SWAP1 SUB PUSH1 0x1F AND DUP3 ADD SWAP2 JUMPDEST POP POP POP POP POP DUP2 MSTORE PUSH1 0x20 ADD PUSH1 0x2 DUP3 ADD DUP1 SLOAD PUSH2 0x46E SWAP1 PUSH2 0xA5D JUMP JUMPDEST DUP1 PUSH1 0x1F ADD PUSH1 0x20 DUP1 SWAP2 DIV MUL PUSH1 0x20 ADD PUSH1 0x40 MLOAD SWAP1 DUP2 ADD PUSH1 0x40 MSTORE DUP1 SWAP3 SWAP2 SWAP1 DUP2 DUP2 MSTORE PUSH1 0x20 ADD DUP3 DUP1 SLOAD PUSH2 0x49A SWAP1 PUSH2 0xA5D JUMP JUMPDEST DUP1 ISZERO PUSH2 0x4E7 JUMPI DUP1 PUSH1 0x1F LT PUSH2 0x4BC JUMPI PUSH2 0x100 DUP1 DUP4 SLOAD DIV MUL DUP4 MSTORE SWAP2 PUSH1 0x20 ADD SWAP2 PUSH2 0x4E7 JUMP JUMPDEST DUP3 ADD SWAP2 SWAP1 PUSH1 0x0 MSTORE PUSH1 0x20 PUSH1 0x0 KECCAK256 SWAP1 JUMPDEST DUP2 SLOAD DUP2 MSTORE SWAP1 PUSH1 0x1 ADD SWAP1 PUSH1 0x20 ADD DUP1 DUP4 GT PUSH2 0x4CA JUMPI DUP3 SWAP1 SUB PUSH1 0x1F AND DUP3 ADD SWAP2 JUMPDEST POP POP POP POP POP DUP2 MSTORE PUSH1 0x20 ADD PUSH1 0x3 DUP3 ADD PUSH1 0x0 SWAP1 SLOAD SWAP1 PUSH2 0x100 EXP SWAP1 DIV PUSH20 0xFFFFFFFFFFFFFFFFFFFFFFFFFFFFFFFFFFFFFFFF AND PUSH20 0xFFFFFFFFFFFFFFFFFFFFFFFFFFFFFFFFFFFFFFFF AND PUSH20 0xFFFFFFFFFFFFFFFFFFFFFFFFFFFFFFFFFFFFFFFF AND DUP2 MSTORE PUSH1 0x20 ADD PUSH1 0x4 DUP3 ADD SLOAD DUP2 MSTORE POP POP SWAP1 POP SWAP2 SWAP1 POP JUMP JUMPDEST PUSH1 0x40 MLOAD DUP1 PUSH1 0xA0 ADD PUSH1 0x40 MSTORE DUP1 PUSH1 0x60 DUP2 MSTORE PUSH1 0x20 ADD PUSH1 0x60 DUP2 MSTORE PUSH1 0x20 ADD PUSH1 0x60 DUP2 MSTORE PUSH1 0x20 ADD PUSH1 0x0 PUSH20 0xFFFFFFFFFFFFFFFFFFFFFFFFFFFFFFFFFFFFFFFF AND DUP2 MSTORE PUSH1 0x20 ADD PUSH1 0x0 DUP2 MSTORE POP SWAP1 JUMP JUMPDEST PUSH1 0x0 PUSH1 0x40 MLOAD SWAP1 POP SWAP1 JUMP JUMPDEST PUSH1 0x0 DUP1 REVERT JUMPDEST PUSH1 0x0 DUP1 REVERT JUMPDEST PUSH1 0x0 DUP1 REVERT JUMPDEST PUSH1 0x0 DUP1 REVERT JUMPDEST PUSH1 0x0 PUSH1 0x1F NOT PUSH1 0x1F DUP4 ADD AND SWAP1 POP SWAP2 SWAP1 POP JUMP JUMPDEST PUSH32 0x4E487B7100000000000000000000000000000000000000000000000000000000 PUSH1 0x0 MSTORE PUSH1 0x41 PUSH1 0x4 MSTORE PUSH1 0x24 PUSH1 0x0 REVERT JUMPDEST PUSH2 0x603 DUP3 PUSH2 0x5BA JUMP JUMPDEST DUP2 ADD DUP2 DUP2 LT PUSH8 0xFFFFFFFFFFFFFFFF DUP3 GT OR ISZERO PUSH2 0x622 JUMPI PUSH2 0x621 PUSH2 0x5CB JUMP JUMPDEST JUMPDEST DUP1 PUSH1 0x40 MSTORE POP POP POP JUMP JUMPDEST PUSH1 0x0 PUSH2 0x635 PUSH2 0x59C JUMP JUMPDEST SWAP1 POP PUSH2 0x641 DUP3 DUP3 PUSH2 0x5FA JUMP JUMPDEST SWAP2 SWAP1 POP JUMP JUMPDEST PUSH1 0x0 PUSH8 0xFFFFFFFFFFFFFFFF DUP3 GT ISZERO PUSH2 0x661 JUMPI PUSH2 0x660 PUSH2 0x5CB JUMP JUMPDEST JUMPDEST PUSH2 0x66A DUP3 PUSH2 0x5BA JUMP JUMPDEST SWAP1 POP PUSH1 0x20 DUP2 ADD SWAP1 POP SWAP2 SWAP1 POP JUMP JUMPDEST DUP3 DUP2 DUP4 CALLDATACOPY PUSH1 0x0 DUP4 DUP4 ADD MSTORE POP POP POP JUMP JUMPDEST PUSH1 0x0 PUSH2 0x699 PUSH2 0x694 DUP5 PUSH2 0x646 JUMP JUMPDEST PUSH2 0x62B JUMP JUMPDEST SWAP1 POP DUP3 DUP2 MSTORE PUSH1 0x20 DUP2 ADD DUP5 DUP5 DUP5 ADD GT ISZERO PUSH2 0x6B5 JUMPI PUSH2 0x6B4 PUSH2 0x5B5 JUMP JUMPDEST JUMPDEST PUSH2 0x6C0 DUP5 DUP3 DUP6 PUSH2 0x677 JUMP JUMPDEST POP SWAP4 SWAP3 POP POP POP JUMP JUMPDEST PUSH1 0x0 DUP3 PUSH1 0x1F DUP4 ADD SLT PUSH2 0x6DD JUMPI PUSH2 0x6DC PUSH2 0x5B0 JUMP JUMPDEST JUMPDEST DUP2 CALLDATALOAD PUSH2 0x6ED DUP5 DUP3 PUSH1 0x20 DUP7 ADD PUSH2 0x686 JUMP JUMPDEST SWAP2 POP POP SWAP3 SWAP2 POP POP JUMP JUMPDEST PUSH1 0x0 PUSH1 0x20 DUP3 DUP5 SUB SLT ISZERO PUSH2 0x70C JUMPI PUSH2 0x70B PUSH2 0x5A6 JUMP JUMPDEST JUMPDEST PUSH1 0x0 DUP3 ADD CALLDATALOAD PUSH8 0xFFFFFFFFFFFFFFFF DUP2 GT ISZERO PUSH2 0x72A JUMPI PUSH2 0x729 PUSH2 0x5AB JUMP JUMPDEST JUMPDEST PUSH2 0x736 DUP5 DUP3 DUP6 ADD PUSH2 0x6C8 JUMP JUMPDEST SWAP2 POP POP SWAP3 SWAP2 POP POP JUMP JUMPDEST PUSH1 0x0 DUP2 ISZERO ISZERO SWAP1 POP SWAP2 SWAP1 POP JUMP JUMPDEST PUSH2 0x754 DUP2 PUSH2 0x73F JUMP JUMPDEST DUP3 MSTORE POP POP JUMP JUMPDEST PUSH1 0x0 PUSH1 0x20 DUP3 ADD SWAP1 POP PUSH2 0x76F PUSH1 0x0 DUP4 ADD DUP5 PUSH2 0x74B JUMP JUMPDEST SWAP3 SWAP2 POP POP JUMP JUMPDEST PUSH1 0x0 PUSH20 0xFFFFFFFFFFFFFFFFFFFFFFFFFFFFFFFFFFFFFFFF DUP3 AND SWAP1 POP SWAP2 SWAP1 POP JUMP JUMPDEST PUSH1 0x0 PUSH2 0x7A0 DUP3 PUSH2 0x775 JUMP JUMPDEST SWAP1 POP SWAP2 SWAP1 POP JUMP JUMPDEST PUSH2 0x7B0 DUP2 PUSH2 0x795 JUMP JUMPDEST DUP2 EQ PUSH2 0x7BB JUMPI PUSH1 0x0 DUP1 REVERT JUMPDEST POP JUMP JUMPDEST PUSH1 0x0 DUP2 CALLDATALOAD SWAP1 POP PUSH2 0x7CD DUP2 PUSH2 0x7A7 JUMP JUMPDEST SWAP3 SWAP2 POP POP JUMP JUMPDEST PUSH1 0x0 DUP1 PUSH1 0x0 DUP1 PUSH1 0x80 DUP6 DUP8 SUB SLT ISZERO PUSH2 0x7ED JUMPI PUSH2 0x7EC PUSH2 0x5A6 JUMP JUMPDEST JUMPDEST PUSH1 0x0 DUP6 ADD CALLDATALOAD PUSH8 0xFFFFFFFFFFFFFFFF DUP2 GT ISZERO PUSH2 0x80B JUMPI PUSH2 0x80A PUSH2 0x5AB JUMP JUMPDEST JUMPDEST PUSH2 0x817 DUP8 DUP3 DUP9 ADD PUSH2 0x6C8 JUMP JUMPDEST SWAP5 POP POP PUSH1 0x20 DUP6 ADD CALLDATALOAD PUSH8 0xFFFFFFFFFFFFFFFF DUP2 GT ISZERO PUSH2 0x838 JUMPI PUSH2 0x837 PUSH2 0x5AB JUMP JUMPDEST JUMPDEST PUSH2 0x844 DUP8 DUP3 DUP9 ADD PUSH2 0x6C8 JUMP JUMPDEST SWAP4 POP POP PUSH1 0x40 DUP6 ADD CALLDATALOAD PUSH8 0xFFFFFFFFFFFFFFFF DUP2 GT ISZERO PUSH2 0x865 JUMPI PUSH2 0x864 PUSH2 0x5AB JUMP JUMPDEST JUMPDEST PUSH2 0x871 DUP8 DUP3 DUP9 ADD PUSH2 0x6C8 JUMP JUMPDEST SWAP3 POP POP PUSH1 0x60 PUSH2 0x882 DUP8 DUP3 DUP9 ADD PUSH2 0x7BE JUMP JUMPDEST SWAP2 POP POP SWAP3 SWAP6 SWAP2 SWAP5 POP SWAP3 POP JUMP JUMPDEST PUSH1 0x0 DUP2 MLOAD SWAP1 POP SWAP2 SWAP1 POP JUMP JUMPDEST PUSH1 0x0 DUP3 DUP3 MSTORE PUSH1 0x20 DUP3 ADD SWAP1 POP SWAP3 SWAP2 POP POP JUMP JUMPDEST PUSH1 0x0 JUMPDEST DUP4 DUP2 LT ISZERO PUSH2 0x8C8 JUMPI DUP1 DUP3 ADD MLOAD DUP2 DUP5 ADD MSTORE PUSH1 0x20 DUP2 ADD SWAP1 POP PUSH2 0x8AD JUMP JUMPDEST PUSH1 0x0 DUP5 DUP5 ADD MSTORE POP POP POP POP JUMP JUMPDEST PUSH1 0x0 PUSH2 0x8DF DUP3 PUSH2 0x88E JUMP JUMPDEST PUSH2 0x8E9 DUP2 DUP6 PUSH2 0x899 JUMP JUMPDEST SWAP4 POP PUSH2 0x8F9 DUP2 DUP6 PUSH1 0x20 DUP7 ADD PUSH2 0x8AA JUMP JUMPDEST PUSH2 0x902 DUP2 PUSH2 0x5BA JUMP JUMPDEST DUP5 ADD SWAP2 POP POP SWAP3 SWAP2 POP POP JUMP JUMPDEST PUSH2 0x916 DUP2 PUSH2 0x795 JUMP JUMPDEST DUP3 MSTORE POP POP JUMP JUMPDEST PUSH1 0x0 DUP2 SWAP1 POP SWAP2 SWAP1 POP JUMP JUMPDEST PUSH2 0x92F DUP2 PUSH2 0x91C JUMP JUMPDEST DUP3 MSTORE POP POP JUMP JUMPDEST PUSH1 0x0 PUSH1 0xA0 DUP4 ADD PUSH1 0x0 DUP4 ADD MLOAD DUP5 DUP3 SUB PUSH1 0x0 DUP7 ADD MSTORE PUSH2 0x952 DUP3 DUP3 PUSH2 0x8D4 JUMP JUMPDEST SWAP2 POP POP PUSH1 0x20 DUP4 ADD MLOAD DUP5 DUP3 SUB PUSH1 0x20 DUP7 ADD MSTORE PUSH2 0x96C DUP3 DUP3 PUSH2 0x8D4 JUMP JUMPDEST SWAP2 POP POP PUSH1 0x40 DUP4 ADD MLOAD DUP5 DUP3 SUB PUSH1 0x40 DUP7 ADD MSTORE PUSH2 0x986 DUP3 DUP3 PUSH2 0x8D4 JUMP JUMPDEST SWAP2 POP POP PUSH1 0x60 DUP4 ADD MLOAD PUSH2 0x99B PUSH1 0x60 DUP7 ADD DUP3 PUSH2 0x90D JUMP JUMPDEST POP PUSH1 0x80 DUP4 ADD MLOAD PUSH2 0x9AE PUSH1 0x80 DUP7 ADD DUP3 PUSH2 0x926 JUMP JUMPDEST POP DUP1 SWAP2 POP POP SWAP3 SWAP2 POP POP JUMP JUMPDEST PUSH1 0x0 PUSH1 0x20 DUP3 ADD SWAP1 POP DUP2 DUP2 SUB PUSH1 0x0 DUP4 ADD MSTORE PUSH2 0x9D3 DUP2 DUP5 PUSH2 0x935 JUMP JUMPDEST SWAP1 POP SWAP3 SWAP2 POP POP JUMP JUMPDEST PUSH1 0x0 DUP2 SWAP1 POP SWAP3 SWAP2 POP POP JUMP JUMPDEST PUSH1 0x0 PUSH2 0x9F1 DUP3 PUSH2 0x88E JUMP JUMPDEST PUSH2 0x9FB DUP2 DUP6 PUSH2 0x9DB JUMP JUMPDEST SWAP4 POP PUSH2 0xA0B DUP2 DUP6 PUSH1 0x20 DUP7 ADD PUSH2 0x8AA JUMP JUMPDEST DUP1 DUP5 ADD SWAP2 POP POP SWAP3 SWAP2 POP POP JUMP JUMPDEST PUSH1 0x0 PUSH2 0xA23 DUP3 DUP5 PUSH2 0x9E6 JUMP JUMPDEST SWAP2 POP DUP2 SWAP1 POP SWAP3 SWAP2 POP POP JUMP JUMPDEST PUSH32 0x4E487B7100000000000000000000000000000000000000000000000000000000 PUSH1 0x0 MSTORE PUSH1 0x22 PUSH1 0x4 MSTORE PUSH1 0x24 PUSH1 0x0 REVERT JUMPDEST PUSH1 0x0 PUSH1 0x2 DUP3 DIV SWAP1 POP PUSH1 0x1 DUP3 AND DUP1 PUSH2 0xA75 JUMPI PUSH1 0x7F DUP3 AND SWAP2 POP JUMPDEST PUSH1 0x20 DUP3 LT DUP2 SUB PUSH2 0xA88 JUMPI PUSH2 0xA87 PUSH2 0xA2E JUMP JUMPDEST JUMPDEST POP SWAP2 SWAP1 POP JUMP JUMPDEST PUSH1 0x0 DUP3 DUP3 MSTORE PUSH1 0x20 DUP3 ADD SWAP1 POP SWAP3 SWAP2 POP POP JUMP JUMPDEST PUSH32 0x436572746966696361746520616C726561647920657869737473000000000000 PUSH1 0x0 DUP3 ADD MSTORE POP JUMP JUMPDEST PUSH1 0x0 PUSH2 0xAD5 PUSH1 0x1A DUP4 PUSH2 0xA8E JUMP JUMPDEST SWAP2 POP PUSH2 0xAE0 DUP3 PUSH2 0xA9F JUMP JUMPDEST PUSH1 0x20 DUP3 ADD SWAP1 POP SWAP2 SWAP1 POP JUMP JUMPDEST PUSH1 0x0 PUSH1 0x20 DUP3 ADD SWAP1 POP DUP2 DUP2 SUB PUSH1 0x0 DUP4 ADD MSTORE PUSH2 0xB04 DUP2 PUSH2 0xAC8 JUMP JUMPDEST SWAP1 POP SWAP2 SWAP1 POP JUMP JUMPDEST PUSH1 0x0 DUP2 SWAP1 POP DUP2 PUSH1 0x0 MSTORE PUSH1 0x20 PUSH1 0x0 KECCAK256 SWAP1 POP SWAP2 SWAP1 POP JUMP JUMPDEST PUSH1 0x0 PUSH1 0x20 PUSH1 0x1F DUP4 ADD DIV SWAP1 POP SWAP2 SWAP1 POP JUMP JUMPDEST PUSH1 0x0 DUP3 DUP3 SHL SWAP1 POP SWAP3 SWAP2 POP POP JUMP JUMPDEST PUSH1 0x0 PUSH1 0x8 DUP4 MUL PUSH2 0xB6D PUSH32 0xFFFFFFFFFFFFFFFFFFFFFFFFFFFFFFFFFFFFFFFFFFFFFFFFFFFFFFFFFFFFFFFF DUP3 PUSH2 0xB30 JUMP JUMPDEST PUSH2 0xB77 DUP7 DUP4 PUSH2 0xB30 JUMP JUMPDEST SWAP6 POP DUP1 NOT DUP5 AND SWAP4 POP DUP1 DUP7 AND DUP5 OR SWAP3 POP POP POP SWAP4 SWAP3 POP POP POP JUMP JUMPDEST PUSH1 0x0 DUP2 SWAP1 POP SWAP2 SWAP1 POP JUMP JUMPDEST PUSH1 0x0 PUSH2 0xBB4 PUSH2 0xBAF PUSH2 0xBAA DUP5 PUSH2 0x91C JUMP JUMPDEST PUSH2 0xB8F JUMP JUMPDEST PUSH2 0x91C JUMP JUMPDEST SWAP1 POP SWAP2 SWAP1 POP JUMP JUMPDEST PUSH1 0x0 DUP2 SWAP1 POP SWAP2 SWAP1 POP JUMP JUMPDEST PUSH2 0xBCE DUP4 PUSH2 0xB99 JUMP JUMPDEST PUSH2 0xBE2 PUSH2 0xBDA DUP3 PUSH2 0xBBB JUMP JUMPDEST DUP5 DUP5 SLOAD PUSH2 0xB3D JUMP JUMPDEST DUP3 SSTORE POP POP POP POP JUMP JUMPDEST PUSH1 0x0 SWAP1 JUMP JUMPDEST PUSH2 0xBF7 PUSH2 0xBEA JUMP JUMPDEST PUSH2 0xC02 DUP2 DUP5 DUP5 PUSH2 0xBC5 JUMP JUMPDEST POP POP POP JUMP JUMPDEST JUMPDEST DUP2 DUP2 LT ISZERO PUSH2 0xC26 JUMPI PUSH2 0xC1B PUSH1 0x0 DUP3 PUSH2 0xBEF JUMP JUMPDEST PUSH1 0x1 DUP2 ADD SWAP1 POP PUSH2 0xC08 JUMP JUMPDEST POP POP JUMP JUMPDEST PUSH1 0x1F DUP3 GT ISZERO PUSH2 0xC6B JUMPI PUSH2 0xC3C DUP2 PUSH2 0xB0B JUMP JUMPDEST PUSH2 0xC45 DUP5 PUSH2 0xB20 JUMP JUMPDEST DUP2 ADD PUSH1 0x20 DUP6 LT ISZERO PUSH2 0xC54 JUMPI DUP2 SWAP1 POP JUMPDEST PUSH2 0xC68 PUSH2 0xC60 DUP6 PUSH2 0xB20 JUMP JUMPDEST DUP4 ADD DUP3 PUSH2 0xC07 JUMP JUMPDEST POP POP JUMPDEST POP POP POP JUMP JUMPDEST PUSH1 0x0 DUP3 DUP3 SHR SWAP1 POP SWAP3 SWAP2 POP POP JUMP JUMPDEST PUSH1 0x0 PUSH2 0xC8E PUSH1 0x0 NOT DUP5 PUSH1 0x8 MUL PUSH2 0xC70 JUMP JUMPDEST NOT DUP1 DUP4 AND SWAP2 POP POP SWAP3 SWAP2 POP POP JUMP JUMPDEST PUSH1 0x0 PUSH2 0xCA7 DUP4 DUP4 PUSH2 0xC7D JUMP JUMPDEST SWAP2 POP DUP3 PUSH1 0x2 MUL DUP3 OR SWAP1 POP SWAP3 SWAP2 POP POP JUMP JUMPDEST PUSH2 0xCC0 DUP3 PUSH2 0x88E JUMP JUMPDEST PUSH8 0xFFFFFFFFFFFFFFFF DUP2 GT ISZERO PUSH2 0xCD9 JUMPI PUSH2 0xCD8 PUSH2 0x5CB JUMP JUMPDEST JUMPDEST PUSH2 0xCE3 DUP3 SLOAD PUSH2 0xA5D JUMP JUMPDEST PUSH2 0xCEE DUP3 DUP3 DUP6 PUSH2 0xC2A JUMP JUMPDEST PUSH1 0x0 PUSH1 0x20 SWAP1 POP PUSH1 0x1F DUP4 GT PUSH1 0x1 DUP2 EQ PUSH2 0xD21 JUMPI PUSH1 0x0 DUP5 ISZERO PUSH2 0xD0F JUMPI DUP3 DUP8 ADD MLOAD SWAP1 POP JUMPDEST PUSH2 0xD19 DUP6 DUP3 PUSH2 0xC9B JUMP JUMPDEST DUP7 SSTORE POP PUSH2 0xD81 JUMP JUMPDEST PUSH1 0x1F NOT DUP5 AND PUSH2 0xD2F DUP7 PUSH2 0xB0B JUMP JUMPDEST PUSH1 0x0 JUMPDEST DUP3 DUP2 LT ISZERO PUSH2 0xD57 JUMPI DUP5 DUP10 ADD MLOAD DUP3 SSTORE PUSH1 0x1 DUP3 ADD SWAP2 POP PUSH1 0x20 DUP6 ADD SWAP5 POP PUSH1 0x20 DUP2 ADD SWAP1 POP PUSH2 0xD32 JUMP JUMPDEST DUP7 DUP4 LT ISZERO PUSH2 0xD74 JUMPI DUP5 DUP10 ADD MLOAD PUSH2 0xD70 PUSH1 0x1F DUP10 AND DUP3 PUSH2 0xC7D JUMP JUMPDEST DUP4 SSTORE POP JUMPDEST PUSH1 0x1 PUSH1 0x2 DUP9 MUL ADD DUP9 SSTORE POP POP POP JUMPDEST POP POP POP POP POP POP JUMP JUMPDEST PUSH1 0x0 PUSH2 0xD94 DUP3 PUSH2 0x88E JUMP JUMPDEST PUSH2 0xD9E DUP2 DUP6 PUSH2 0xA8E JUMP JUMPDEST SWAP4 POP PUSH2 0xDAE DUP2 DUP6 PUSH1 0x20 DUP7 ADD PUSH2 0x8AA JUMP JUMPDEST PUSH2 0xDB7 DUP2 PUSH2 0x5BA JUMP JUMPDEST DUP5 ADD SWAP2 POP POP SWAP3 SWAP2 POP POP JUMP JUMPDEST PUSH2 0xDCB DUP2 PUSH2 0x795 JUMP JUMPDEST DUP3 MSTORE POP POP JUMP JUMPDEST PUSH1 0x0 PUSH1 0x40 DUP3 ADD SWAP1 POP DUP2 DUP2 SUB PUSH1 0x0 DUP4 ADD MSTORE PUSH2 0xDEB DUP2 DUP6 PUSH2 0xD89 JUMP JUMPDEST SWAP1 POP PUSH2 0xDFA PUSH1 0x20 DUP4 ADD DUP5 PUSH2 0xDC2 JUMP JUMPDEST SWAP4 SWAP3 POP POP POP JUMP JUMPDEST PUSH32 0x4365727469666963617465206E6F7420666F756E640000000000000000000000 PUSH1 0x0 DUP3 ADD MSTORE POP JUMP JUMPDEST PUSH1 0x0 PUSH2 0xE37 PUSH1 0x15 DUP4 PUSH2 0xA8E JUMP JUMPDEST SWAP2 POP PUSH2 0xE42 DUP3 PUSH2 0xE01 JUMP JUMPDEST PUSH1 0x20 DUP3 ADD SWAP1 POP SWAP2 SWAP1 POP JUMP JUMPDEST PUSH1 0x0 PUSH1 0x20 DUP3 ADD SWAP1 POP DUP2 DUP2 SUB PUSH1 0x0 DUP4 ADD MSTORE PUSH2 0xE66 DUP2 PUSH2 0xE2A JUMP JUMPDEST SWAP1 POP SWAP2 SWAP1 POP JUMP INVALID LOG2 PUSH5 0x6970667358 0x22 SLT KECCAK256 DUP10 0x2F OR BLOBHASH ADD 0xAD 0x4B PUSH7 0xB533B01B2263ED 0xCF SUB NOT EXTCODEHASH 0xC9 PUSH16 0x8B4640C7660007A81C29AA64736F6C63 NUMBER STOP ADDMOD SHR STOP CALLER "},"methodIdentifiers":{"getCertificate(string)":"ed0f2e75","issueCertificate(string,string,string,address)":"b898c86f","verifyCertificate(string)":"8b23d875"}}}}}